{"abi":[{"type":"constructor","inputs":[],"stateMutability":"payable"},{"type":"function","name":"activeLoanIds","inputs":[{"name":"","type":"uint256","internalType":"uint256"}],"outputs":[{"name":"","type":"uint256","internalType":"uint256"}],"stateMutability":"view"},{"type":"function","name":"addCollateralForCrowfundedLoan","inputs":[{"name":"crowfundedLoanId","type":"uint256","internalType":"uint256"}],"outputs":[],"stateMutability":"payable"},{"type":"function","name":"assignMaximumAmountForLoan","inputs":[{"name":"user","type":"address","internalType":"address"}],"outputs":[],"stateMutability":"nonpayable"},{"type":"function","name":"borrowMON","inputs":[{"name":"borrowAmount","type":"uint256","internalType":"uint256"}],"outputs":[],"stateMutability":"payable"},{"type":"function","name":"calculateCollateralValue","inputs":[{"name":"lender","type":"address","internalType":"address"}],"outputs":[{"name":"","type":"uint256","internalType":"uint256"}],"stateMutability":"view"},{"type":"function","name":"checkLoanActive","inputs":[{"name":"loanId","type":"uint256","internalType":"uint256"}],"outputs":[{"name":"","type":"bool","internalType":"bool"}],"stateMutability":"view"},{"type":"function","name":"createLoanRequest","inputs":[{"name":"amountToBorrow","type":"uint256","internalType":"uint256"}],"outputs":[{"name":"","type":"uint256","internalType":"uint256"}],"stateMutability":"nonpayable"},{"type":"function","name":"getActiveLoanIds","inputs":[],"outputs":[{"name":"","type":"uint256[]","internalType":"uint256[]"}],"stateMutability":"view"},{"type":"function","name":"getLoanBorrower","inputs":[{"name":"loanId","type":"uint256","internalType":"uint256"}],"outputs":[{"name":"","type":"address","internalType":"address"}],"stateMutability":"view"},{"type":"function","name":"getLoanCollateral","inputs":[{"name":"loanId","type":"uint256","internalType":"uint256"}],"outputs":[{"name":"","type":"uint256","internalType":"uint256"}],"stateMutability":"view"},{"type":"function","name":"getMaximumAmountForLoan","inputs":[{"name":"user","type":"address","internalType":"address"}],"outputs":[{"name":"","type":"uint256","internalType":"uint256"}],"stateMutability":"view"},{"type":"function","name":"getTotalLoans","inputs":[],"outputs":[{"name":"","type":"uint256","internalType":"uint256"}],"stateMutability":"view"},{"type":"function","name":"getVerifiedUser","inputs":[{"name":"user","type":"address","internalType":"address"}],"outputs":[{"name":"","type":"bool","internalType":"bool"}],"stateMutability":"view"},{"type":"function","name":"isLiquidatable","inputs":[{"name":"user","type":"address","internalType":"address"}],"outputs":[{"name":"","type":"bool","internalType":"bool"}],"stateMutability":"view"},{"type":"function","name":"isLoanActive","inputs":[{"name":"","type":"uint256","internalType":"uint256"}],"outputs":[{"name":"","type":"bool","internalType":"bool"}],"stateMutability":"view"},{"type":"function","name":"markLoanInactive","inputs":[{"name":"loanId","type":"uint256","internalType":"uint256"}],"outputs":[],"stateMutability":"nonpayable"},{"type":"function","name":"owner","inputs":[],"outputs":[{"name":"","type":"address","internalType":"address"}],"stateMutability":"view"},{"type":"function","name":"renounceOwnership","inputs":[],"outputs":[],"stateMutability":"nonpayable"},{"type":"function","name":"repayMON","inputs":[],"outputs":[],"stateMutability":"payable"},{"type":"function","name":"s_collateralForLoanId","inputs":[{"name":"","type":"uint256","internalType":"uint256"}],"outputs":[{"name":"","type":"uint256","internalType":"uint256"}],"stateMutability":"view"},{"type":"function","name":"s_crowfundedLoanId","inputs":[{"name":"","type":"uint256","internalType":"uint256"}],"outputs":[{"name":"","type":"address","internalType":"address"}],"stateMutability":"view"},{"type":"function","name":"s_debtorBorrowed","inputs":[{"name":"","type":"address","internalType":"address"}],"outputs":[{"name":"","type":"uint256","internalType":"uint256"}],"stateMutability":"view"},{"type":"function","name":"s_lenderCollateral","inputs":[{"name":"","type":"address","internalType":"address"}],"outputs":[{"name":"","type":"uint256","internalType":"uint256"}],"stateMutability":"view"},{"type":"function","name":"s_lenderCrowfundedLoanId","inputs":[{"name":"","type":"address","internalType":"address"}],"outputs":[{"name":"","type":"uint256","internalType":"uint256"}],"stateMutability":"view"},{"type":"function","name":"s_maximumAmountForLoan","inputs":[{"name":"","type":"address","internalType":"address"}],"outputs":[{"name":"","type":"uint256","internalType":"uint256"}],"stateMutability":"view"},{"type":"function","name":"s_verifiedUsers","inputs":[{"name":"","type":"address","internalType":"address"}],"outputs":[{"name":"","type":"bool","internalType":"bool"}],"stateMutability":"view"},{"type":"function","name":"totalLoans","inputs":[],"outputs":[{"name":"","type":"uint256","internalType":"uint256"}],"stateMutability":"view"},{"type":"function","name":"transferOwnership","inputs":[{"name":"newOwner","type":"address","internalType":"address"}],"outputs":[],"stateMutability":"nonpayable"},{"type":"function","name":"verifyUser","inputs":[{"name":"user","type":"address","internalType":"address"}],"outputs":[],"stateMutability":"nonpayable"},{"type":"function","name":"withdrawForCrowfundedLoan","inputs":[{"name":"amount","type":"uint256","internalType":"uint256"},{"name":"loanId","type":"uint256","internalType":"uint256"}],"outputs":[],"stateMutability":"nonpayable"},{"type":"event","name":"AssetBorrowed","inputs":[{"name":"user","type":"address","indexed":true,"internalType":"address"},{"name":"amount","type":"uint256","indexed":true,"internalType":"uint256"}],"anonymous":false},{"type":"event","name":"CollateralAdded","inputs":[{"name":"user","type":"address","indexed":true,"internalType":"address"},{"name":"amount","type":"uint256","indexed":true,"internalType":"uint256"},{"name":"crowfundedLoanId","type":"uint256","indexed":true,"internalType":"uint256"}],"anonymous":false},{"type":"event","name":"CollateralWithdrawn","inputs":[{"name":"user","type":"address","indexed":true,"internalType":"address"},{"name":"amount","type":"uint256","indexed":true,"internalType":"uint256"}],"anonymous":false},{"type":"event","name":"DebtRepaid","inputs":[{"name":"user","type":"address","indexed":true,"internalType":"address"},{"name":"amount","type":"uint256","indexed":true,"internalType":"uint256"}],"anonymous":false},{"type":"event","name":"Liquidation","inputs":[{"name":"user","type":"address","indexed":true,"internalType":"address"},{"name":"liquidator","type":"address","indexed":true,"internalType":"address"},{"name":"amountForLiquidator","type":"uint256","indexed":false,"internalType":"uint256"},{"name":"liquidatedUserDebt","type":"uint256","indexed":false,"internalType":"uint256"}],"anonymous":false},{"type":"event","name":"LoanRequestCreated","inputs":[{"name":"loanId","type":"uint256","indexed":true,"internalType":"uint256"},{"name":"borrower","type":"address","indexed":true,"internalType":"address"}],"anonymous":false},{"type":"event","name":"MaximumAmountForLoanIncreased","inputs":[{"name":"user","type":"address","indexed":true,"internalType":"address"},{"name":"newAmount","type":"uint256","indexed":true,"internalType":"uint256"}],"anonymous":false},{"type":"event","name":"OwnershipTransferred","inputs":[{"name":"previousOwner","type":"address","indexed":true,"internalType":"address"},{"name":"newOwner","type":"address","indexed":true,"internalType":"address"}],"anonymous":false},{"type":"error","name":"LoanadLendingMarket__BorrowingFailed","inputs":[]},{"type":"error","name":"LoanadLendingMarket__CrowfundedLoanDoesNotExist","inputs":[]},{"type":"error","name":"LoanadLendingMarket__InvalidAmount","inputs":[]},{"type":"error","name":"LoanadLendingMarket__LoanNotActive","inputs":[]},{"type":"error","name":"LoanadLendingMarket__TransferFailed","inputs":[]},{"type":"error","name":"LoanadLendingMarket__UnsafePositionRatio","inputs":[]},{"type":"error","name":"OwnableInvalidOwner","inputs":[{"name":"owner","type":"address","internalType":"address"}]},{"type":"error","name":"OwnableUnauthorizedAccount","inputs":[{"name":"account","type":"address","internalType":"address"}]}],"bytecode":{"object":"0x60806040526001600b55335f73ffffffffffffffffffffffffffffffffffffffff168173ffffffffffffffffffffffffffffffffffffffff160361007a575f6040517f1e4fbdf7000000000000000000000000000000000000000000000000000000008152600401610071919061018f565b60405180910390fd5b6100898161008f60201b60201c565b506101a8565b5f5f5f9054906101000a900473ffffffffffffffffffffffffffffffffffffffff169050815f5f6101000a81548173ffffffffffffffffffffffffffffffffffffffff021916908373ffffffffffffffffffffffffffffffffffffffff1602179055508173ffffffffffffffffffffffffffffffffffffffff168173ffffffffffffffffffffffffffffffffffffffff167f8be0079c531659141344cd1fd0a4f28419497f9722a3daafe3b4186f6b6457e060405160405180910390a35050565b5f73ffffffffffffffffffffffffffffffffffffffff82169050919050565b5f61017982610150565b9050919050565b6101898161016f565b82525050565b5f6020820190506101a25f830184610180565b92915050565b612035806101b55f395ff3fe6080604052600436106101cc575f3560e01c8063706f24a5116100f6578063b93186ba11610094578063e3fede9011610063578063e3fede90146106b8578063e8627e24146106f4578063eca0617014610730578063f2fde38b1461076c576101cc565b8063b93186ba146105ec578063cb476b6b14610628578063cc952b5714610652578063d117fc991461067c576101cc565b80637a4d08f1116100d05780637a4d08f114610520578063833be5d51461055c5780638da5cb5b14610586578063b03590be146105b0576101cc565b8063706f24a5146104a6578063715018a6146104e2578063753008b1146104f8576101cc565b80633ef0a2f71161016e5780635886cb681161013d5780635886cb68146103ea5780635a0ca55e146104065780636a10592b1461042e5780636b9e1d931461046a576101cc565b80633ef0a2f71461030e578063456010561461034a5780634d81312014610386578063523992ab146103ae576101cc565b80631e7b5766116101aa5780631e7b5766146102845780632645b1db146102ac578063391f64ad146102c85780633d263c3314610304576101cc565b8063010d5730146101d0578063042e02cf1461020c5780630835e14514610248575b5f5ffd5b3480156101db575f5ffd5b506101f660048036038101906101f19190611ba4565b610794565b6040516102039190611bde565b60405180910390f35b348015610217575f5ffd5b50610232600480360381019061022d9190611c51565b6107ae565b60405161023f9190611c96565b60405180910390f35b348015610253575f5ffd5b5061026e60048036038101906102699190611c51565b610854565b60405161027b9190611bde565b60405180910390f35b34801561028f575f5ffd5b506102aa60048036038101906102a59190611caf565b6108e7565b005b6102c660048036038101906102c19190611ba4565b610b8c565b005b3480156102d3575f5ffd5b506102ee60048036038101906102e99190611c51565b610e35565b6040516102fb9190611bde565b60405180910390f35b61030c610e4a565b005b348015610319575f5ffd5b50610334600480360381019061032f9190611ba4565b610f6e565b6040516103419190611cfc565b60405180910390f35b348015610355575f5ffd5b50610370600480360381019061036b9190611c51565b610fa7565b60405161037d9190611c96565b60405180910390f35b348015610391575f5ffd5b506103ac60048036038101906103a79190611c51565b610fc4565b005b3480156103b9575f5ffd5b506103d460048036038101906103cf9190611ba4565b611024565b6040516103e19190611bde565b60405180910390f35b61040460048036038101906103ff9190611ba4565b611039565b005b348015610411575f5ffd5b5061042c60048036038101906104279190611ba4565b61120b565b005b348015610439575f5ffd5b50610454600480360381019061044f9190611c51565b611345565b6040516104619190611bde565b60405180910390f35b348015610475575f5ffd5b50610490600480360381019061048b9190611c51565b61135a565b60405161049d9190611bde565b60405180910390f35b3480156104b1575f5ffd5b506104cc60048036038101906104c79190611ba4565b61136f565b6040516104d99190611bde565b60405180910390f35b3480156104ed575f5ffd5b506104f6611505565b005b348015610503575f5ffd5b5061051e60048036038101906105199190611c51565b611518565b005b34801561052b575f5ffd5b5061054660048036038101906105419190611ba4565b61157b565b6040516105539190611cfc565b60405180910390f35b348015610567575f5ffd5b506105706115ab565b60405161057d9190611bde565b60405180910390f35b348015610591575f5ffd5b5061059a6115b4565b6040516105a79190611cfc565b60405180910390f35b3480156105bb575f5ffd5b506105d660048036038101906105d19190611ba4565b6115db565b6040516105e39190611c96565b60405180910390f35b3480156105f7575f5ffd5b50610612600480360381019061060d9190611ba4565b6115f8565b60405161061f9190611bde565b60405180910390f35b348015610633575f5ffd5b5061063c611618565b6040516106499190611dcc565b60405180910390f35b34801561065d575f5ffd5b5061066661166e565b6040516106739190611bde565b60405180910390f35b348015610687575f5ffd5b506106a2600480360381019061069d9190611c51565b611674565b6040516106af9190611c96565b60405180910390f35b3480156106c3575f5ffd5b506106de60048036038101906106d99190611c51565b6116c6565b6040516106eb9190611bde565b60405180910390f35b3480156106ff575f5ffd5b5061071a60048036038101906107159190611ba4565b61170c565b6040516107279190611c96565b60405180910390f35b34801561073b575f5ffd5b5061075660048036038101906107519190611c51565b611732565b6040516107639190611bde565b60405180910390f35b348015610777575f5ffd5b50610792600480360381019061078d9190611c51565b611747565b005b5f60055f8381526020019081526020015f20549050919050565b5f5f6107f6600a5f8573ffffffffffffffffffffffffffffffffffffffff1673ffffffffffffffffffffffffffffffffffffffff1681526020019081526020015f20546117cb565b90507fffffffffffffffffffffffffffffffffffffffffffffffffffffffffffffffff8103610828575f91505061084f565b670de0b6b3a7640000607861083d9190611e19565b60648261084a9190611e19565b109150505b919050565b5f5f60095f8473ffffffffffffffffffffffffffffffffffffffff1673ffffffffffffffffffffffffffffffffffffffff1681526020019081526020015f2054036108a1575f90506108e2565b60095f8373ffffffffffffffffffffffffffffffffffffffff1673ffffffffffffffffffffffffffffffffffffffff1681526020019081526020015f205490505b919050565b5f82148061093157508160095f3373ffffffffffffffffffffffffffffffffffffffff1673ffffffffffffffffffffffffffffffffffffffff1681526020019081526020015f2054105b15610968576040517f03eafacd00000000000000000000000000000000000000000000000000000000815260040160405180910390fd5b5f600a5f3373ffffffffffffffffffffffffffffffffffffffff1673ffffffffffffffffffffffffffffffffffffffff1681526020019081526020015f2054036109de576040517fdb25899d00000000000000000000000000000000000000000000000000000000815260040160405180910390fd5b8160095f3373ffffffffffffffffffffffffffffffffffffffff1673ffffffffffffffffffffffffffffffffffffffff1681526020019081526020015f205f828254610a2a9190611e5a565b925050819055508160055f8381526020019081526020015f205f828254610a519190611e5a565b92505081905550610a9e600a5f3373ffffffffffffffffffffffffffffffffffffffff1673ffffffffffffffffffffffffffffffffffffffff1681526020019081526020015f20546118eb565b5f3373ffffffffffffffffffffffffffffffffffffffff1683604051610ac390611eba565b5f6040518083038185875af1925050503d805f8114610afd576040519150601f19603f3d011682016040523d82523d5f602084013e610b02565b606091505b505090508015610b5557823373ffffffffffffffffffffffffffffffffffffffff167fc30fcfbcaac9e0deffa719714eaa82396ff506a0d0d0eebe170830177288715d60405160405180910390a3610b87565b6040517f8607135600000000000000000000000000000000000000000000000000000000815260040160405180910390fd5b505050565b5f8103610bc5576040517f03eafacd00000000000000000000000000000000000000000000000000000000815260040160405180910390fd5b60065f3373ffffffffffffffffffffffffffffffffffffffff1673ffffffffffffffffffffffffffffffffffffffff1681526020019081526020015f2054811115610c3c576040517f03eafacd00000000000000000000000000000000000000000000000000000000815260040160405180910390fd5b60065f3373ffffffffffffffffffffffffffffffffffffffff1673ffffffffffffffffffffffffffffffffffffffff1681526020019081526020015f20548160075f3373ffffffffffffffffffffffffffffffffffffffff1673ffffffffffffffffffffffffffffffffffffffff1681526020019081526020015f2054610cc39190611ece565b1115610cfb576040517f03eafacd00000000000000000000000000000000000000000000000000000000815260040160405180910390fd5b8060075f3373ffffffffffffffffffffffffffffffffffffffff1673ffffffffffffffffffffffffffffffffffffffff1681526020019081526020015f205f828254610d479190611ece565b925050819055505f3373ffffffffffffffffffffffffffffffffffffffff1682604051610d7390611eba565b5f6040518083038185875af1925050503d805f8114610dad576040519150601f19603f3d011682016040523d82523d5f602084013e610db2565b606091505b5050905080610ded576040517f0c4474ed00000000000000000000000000000000000000000000000000000000815260040160405180910390fd5b813373ffffffffffffffffffffffffffffffffffffffff167f03c44a7ddb65ca5f1bbeffda35ba96457c370e957138d14005ff3e55551ab50f60405160405180910390a35050565b6009602052805f5260405f205f915090505481565b5f341480610e94575060075f3373ffffffffffffffffffffffffffffffffffffffff1673ffffffffffffffffffffffffffffffffffffffff1681526020019081526020015f205434115b15610ecb576040517f03eafacd00000000000000000000000000000000000000000000000000000000815260040160405180910390fd5b3460075f3373ffffffffffffffffffffffffffffffffffffffff1673ffffffffffffffffffffffffffffffffffffffff1681526020019081526020015f205f828254610f179190611e5a565b92505081905550343373ffffffffffffffffffffffffffffffffffffffff167fe8b606ac1e5df7657db58d297ca8f41c090fc94c5fd2d6958f043e41736e9fa660405160405180910390a3610f6b3361195e565b50565b5f60045f8381526020019081526020015f205f9054906101000a900473ffffffffffffffffffffffffffffffffffffffff169050919050565b6008602052805f5260405f205f915054906101000a900460ff1681565b610fcc611a1e565b600160085f8373ffffffffffffffffffffffffffffffffffffffff1673ffffffffffffffffffffffffffffffffffffffff1681526020019081526020015f205f6101000a81548160ff02191690831515021790555050565b6005602052805f5260405f205f915090505481565b5f3403611072576040517f03eafacd00000000000000000000000000000000000000000000000000000000815260040160405180910390fd5b5f73ffffffffffffffffffffffffffffffffffffffff1660045f8381526020019081526020015f205f9054906101000a900473ffffffffffffffffffffffffffffffffffffffff1673ffffffffffffffffffffffffffffffffffffffff1603611107576040517fdb25899d00000000000000000000000000000000000000000000000000000000815260040160405180910390fd5b3460095f3373ffffffffffffffffffffffffffffffffffffffff1673ffffffffffffffffffffffffffffffffffffffff1681526020019081526020015f205f8282546111539190611ece565b9250508190555080600a5f3373ffffffffffffffffffffffffffffffffffffffff1673ffffffffffffffffffffffffffffffffffffffff1681526020019081526020015f20819055503460055f8381526020019081526020015f205f8282546111bc9190611ece565b9250508190555080343373ffffffffffffffffffffffffffffffffffffffff167f11f8990ac38271f23dea447d5728e9914fca7cea2edda43af6c43c415f8bc30b60405160405180910390a450565b60015f8281526020019081526020015f205f9054906101000a900460ff1661125f576040517fe0dbc84b00000000000000000000000000000000000000000000000000000000815260040160405180910390fd5b5f60015f8381526020019081526020015f205f6101000a81548160ff0219169083151502179055505f5f90505b6002805490508110156113415781600282815481106112ae576112ad611f01565b5b905f5260205f2001540361133457600260016002805490506112d09190611e5a565b815481106112e1576112e0611f01565b5b905f5260205f200154600282815481106112fe576112fd611f01565b5b905f5260205f200181905550600280548061131c5761131b611f2e565b5b600190038181905f5260205f20015f90559055611341565b808060010191505061128c565b5050565b600a602052805f5260405f205f915090505481565b6007602052805f5260405f205f915090505481565b5f60065f3373ffffffffffffffffffffffffffffffffffffffff1673ffffffffffffffffffffffffffffffffffffffff1681526020019081526020015f20548211156113e7576040517f03eafacd00000000000000000000000000000000000000000000000000000000815260040160405180910390fd5b5f600b5490503360045f8381526020019081526020015f205f6101000a81548173ffffffffffffffffffffffffffffffffffffffff021916908373ffffffffffffffffffffffffffffffffffffffff160217905550600b5f81548092919061144e90611f5b565b919050555060035f81548092919061146590611f5b565b91905055506001805f8381526020019081526020015f205f6101000a81548160ff021916908315150217905550600281908060018154018082558091505060019003905f5260205f20015f90919091909150553373ffffffffffffffffffffffffffffffffffffffff16817f57df7116e5a123b00bcc6b104cc9b83a18cebf5a4bbc76f884f19c1a5ae2a42660405160405180910390a380915050919050565b61150d611a1e565b6115165f611aa5565b565b611520611a1e565b5f678ac7230489e8000090508060065f8473ffffffffffffffffffffffffffffffffffffffff1673ffffffffffffffffffffffffffffffffffffffff1681526020019081526020015f208190555061157782610fc4565b5050565b6004602052805f5260405f205f915054906101000a900473ffffffffffffffffffffffffffffffffffffffff1681565b5f600354905090565b5f5f5f9054906101000a900473ffffffffffffffffffffffffffffffffffffffff16905090565b6001602052805f5260405f205f915054906101000a900460ff1681565b60028181548110611607575f80fd5b905f5260205f20015f915090505481565b6060600280548060200260200160405190810160405280929190818152602001828054801561166457602002820191905f5260205f20905b815481526020019060010190808311611650575b5050505050905090565b60035481565b5f60085f8373ffffffffffffffffffffffffffffffffffffffff1673ffffffffffffffffffffffffffffffffffffffff1681526020019081526020015f205f9054906101000a900460ff169050919050565b5f60065f8373ffffffffffffffffffffffffffffffffffffffff1673ffffffffffffffffffffffffffffffffffffffff1681526020019081526020015f20549050919050565b5f60015f8381526020019081526020015f205f9054906101000a900460ff169050919050565b6006602052805f5260405f205f915090505481565b61174f611a1e565b5f73ffffffffffffffffffffffffffffffffffffffff168173ffffffffffffffffffffffffffffffffffffffff16036117bf575f6040517f1e4fbdf70000000000000000000000000000000000000000000000000000000081526004016117b69190611cfc565b60405180910390fd5b6117c881611aa5565b50565b5f5f60045f8481526020019081526020015f205f9054906101000a900473ffffffffffffffffffffffffffffffffffffffff1690505f60075f8373ffffffffffffffffffffffffffffffffffffffff1673ffffffffffffffffffffffffffffffffffffffff1681526020019081526020015f205490505f84148061187a57505f73ffffffffffffffffffffffffffffffffffffffff168273ffffffffffffffffffffffffffffffffffffffff16145b8061188457505f81145b156118b3577fffffffffffffffffffffffffffffffffffffffffffffffffffffffffffffffff925050506118e6565b5f60055f8681526020019081526020015f20549050816064826118d69190611e19565b6118e09190611fcf565b93505050505b919050565b61192460045f8381526020019081526020015f205f9054906101000a900473ffffffffffffffffffffffffffffffffffffffff166107ae565b1561195b576040517f3d61fa1900000000000000000000000000000000000000000000000000000000815260040160405180910390fd5b50565b5f5f6064601460646119709190611ece565b611979856116c6565b6119839190611e19565b61198d9190611fcf565b90508060065f8573ffffffffffffffffffffffffffffffffffffffff1673ffffffffffffffffffffffffffffffffffffffff1681526020019081526020015f2081905550808373ffffffffffffffffffffffffffffffffffffffff167f1a4235af372eea817f49df61d0089a8ab9c183dc4aada4a4a63a9e3211dd5b0160405160405180910390a380915050919050565b611a26611b66565b73ffffffffffffffffffffffffffffffffffffffff16611a446115b4565b73ffffffffffffffffffffffffffffffffffffffff1614611aa357611a67611b66565b6040517f118cdaa7000000000000000000000000000000000000000000000000000000008152600401611a9a9190611cfc565b60405180910390fd5b565b5f5f5f9054906101000a900473ffffffffffffffffffffffffffffffffffffffff169050815f5f6101000a81548173ffffffffffffffffffffffffffffffffffffffff021916908373ffffffffffffffffffffffffffffffffffffffff1602179055508173ffffffffffffffffffffffffffffffffffffffff168173ffffffffffffffffffffffffffffffffffffffff167f8be0079c531659141344cd1fd0a4f28419497f9722a3daafe3b4186f6b6457e060405160405180910390a35050565b5f33905090565b5f5ffd5b5f819050919050565b611b8381611b71565b8114611b8d575f5ffd5b50565b5f81359050611b9e81611b7a565b92915050565b5f60208284031215611bb957611bb8611b6d565b5b5f611bc684828501611b90565b91505092915050565b611bd881611b71565b82525050565b5f602082019050611bf15f830184611bcf565b92915050565b5f73ffffffffffffffffffffffffffffffffffffffff82169050919050565b5f611c2082611bf7565b9050919050565b611c3081611c16565b8114611c3a575f5ffd5b50565b5f81359050611c4b81611c27565b92915050565b5f60208284031215611c6657611c65611b6d565b5b5f611c7384828501611c3d565b91505092915050565b5f8115159050919050565b611c9081611c7c565b82525050565b5f602082019050611ca95f830184611c87565b92915050565b5f5f60408385031215611cc557611cc4611b6d565b5b5f611cd285828601611b90565b9250506020611ce385828601611b90565b9150509250929050565b611cf681611c16565b82525050565b5f602082019050611d0f5f830184611ced565b92915050565b5f81519050919050565b5f82825260208201905092915050565b5f819050602082019050919050565b611d4781611b71565b82525050565b5f611d588383611d3e565b60208301905092915050565b5f602082019050919050565b5f611d7a82611d15565b611d848185611d1f565b9350611d8f83611d2f565b805f5b83811015611dbf578151611da68882611d4d565b9750611db183611d64565b925050600181019050611d92565b5085935050505092915050565b5f6020820190508181035f830152611de48184611d70565b905092915050565b7f4e487b71000000000000000000000000000000000000000000000000000000005f52601160045260245ffd5b5f611e2382611b71565b9150611e2e83611b71565b9250828202611e3c81611b71565b91508282048414831517611e5357611e52611dec565b5b5092915050565b5f611e6482611b71565b9150611e6f83611b71565b9250828203905081811115611e8757611e86611dec565b5b92915050565b5f81905092915050565b50565b5f611ea55f83611e8d565b9150611eb082611e97565b5f82019050919050565b5f611ec482611e9a565b9150819050919050565b5f611ed882611b71565b9150611ee383611b71565b9250828201905080821115611efb57611efa611dec565b5b92915050565b7f4e487b71000000000000000000000000000000000000000000000000000000005f52603260045260245ffd5b7f4e487b71000000000000000000000000000000000000000000000000000000005f52603160045260245ffd5b5f611f6582611b71565b91507fffffffffffffffffffffffffffffffffffffffffffffffffffffffffffffffff8203611f9757611f96611dec565b5b600182019050919050565b7f4e487b71000000000000000000000000000000000000000000000000000000005f52601260045260245ffd5b5f611fd982611b71565b9150611fe483611b71565b925082611ff457611ff3611fa2565b5b82820490509291505056fea2646970667358221220492bb03d3014a34bdd0f0cfb2f94505435f1aa8d541a3d600a5c4c2721eccceb64736f6c634300081e0033","linkReferences":{}},"methodIdentifiers":{"activeLoanIds(uint256)":"b93186ba","addCollateralForCrowfundedLoan(uint256)":"5886cb68","assignMaximumAmountForLoan(address)":"753008b1","borrowMON(uint256)":"2645b1db","calculateCollateralValue(address)":"0835e145","checkLoanActive(uint256)":"e8627e24","createLoanRequest(uint256)":"706f24a5","getActiveLoanIds()":"cb476b6b","getLoanBorrower(uint256)":"3ef0a2f7","getLoanCollateral(uint256)":"010d5730","getMaximumAmountForLoan(address)":"e3fede90","getTotalLoans()":"833be5d5","getVerifiedUser(address)":"d117fc99","isLiquidatable(address)":"042e02cf","isLoanActive(uint256)":"b03590be","markLoanInactive(uint256)":"5a0ca55e","owner()":"8da5cb5b","renounceOwnership()":"715018a6","repayMON()":"3d263c33","s_collateralForLoanId(uint256)":"523992ab","s_crowfundedLoanId(uint256)":"7a4d08f1","s_debtorBorrowed(address)":"6b9e1d93","s_lenderCollateral(address)":"391f64ad","s_lenderCrowfundedLoanId(address)":"6a10592b","s_maximumAmountForLoan(address)":"eca06170","s_verifiedUsers(address)":"45601056","totalLoans()":"cc952b57","transferOwnership(address)":"f2fde38b","verifyUser(address)":"4d813120","withdrawForCrowfundedLoan(uint256,uint256)":"1e7b5766"},"id":0}