{"abi":[{"type":"constructor","inputs":[],"stateMutability":"payable"},{"type":"function","name":"addCollateralForCrowfundedLoan","inputs":[{"name":"crowfundedLoanId","type":"uint256","internalType":"uint256"}],"outputs":[],"stateMutability":"payable"},{"type":"function","name":"assignMaximumAmountForLoan","inputs":[{"name":"user","type":"address","internalType":"address"},{"name":"amountForLoan","type":"uint256","internalType":"uint256"}],"outputs":[],"stateMutability":"nonpayable"},{"type":"function","name":"borrowMON","inputs":[{"name":"borrowAmount","type":"uint256","internalType":"uint256"}],"outputs":[],"stateMutability":"payable"},{"type":"function","name":"calculateCollateralValue","inputs":[{"name":"lender","type":"address","internalType":"address"}],"outputs":[{"name":"","type":"uint256","internalType":"uint256"}],"stateMutability":"view"},{"type":"function","name":"createLoanRequest","inputs":[{"name":"amountToBorrow","type":"uint256","internalType":"uint256"}],"outputs":[{"name":"","type":"uint256","internalType":"uint256"}],"stateMutability":"nonpayable"},{"type":"function","name":"getLoanBorrower","inputs":[{"name":"loanId","type":"uint256","internalType":"uint256"}],"outputs":[{"name":"","type":"address","internalType":"address"}],"stateMutability":"view"},{"type":"function","name":"getLoanCollateral","inputs":[{"name":"loanId","type":"uint256","internalType":"uint256"}],"outputs":[{"name":"","type":"uint256","internalType":"uint256"}],"stateMutability":"view"},{"type":"function","name":"getMaximumAmountForLoan","inputs":[{"name":"user","type":"address","internalType":"address"}],"outputs":[{"name":"","type":"uint256","internalType":"uint256"}],"stateMutability":"view"},{"type":"function","name":"isLiquidatable","inputs":[{"name":"user","type":"address","internalType":"address"}],"outputs":[{"name":"","type":"bool","internalType":"bool"}],"stateMutability":"view"},{"type":"function","name":"owner","inputs":[],"outputs":[{"name":"","type":"address","internalType":"address"}],"stateMutability":"view"},{"type":"function","name":"renounceOwnership","inputs":[],"outputs":[],"stateMutability":"nonpayable"},{"type":"function","name":"repayMON","inputs":[],"outputs":[],"stateMutability":"payable"},{"type":"function","name":"s_collateralForLoanId","inputs":[{"name":"","type":"uint256","internalType":"uint256"}],"outputs":[{"name":"","type":"uint256","internalType":"uint256"}],"stateMutability":"view"},{"type":"function","name":"s_crowfundedLoanId","inputs":[{"name":"","type":"uint256","internalType":"uint256"}],"outputs":[{"name":"","type":"address","internalType":"address"}],"stateMutability":"view"},{"type":"function","name":"s_debtorBorrowed","inputs":[{"name":"","type":"address","internalType":"address"}],"outputs":[{"name":"","type":"uint256","internalType":"uint256"}],"stateMutability":"view"},{"type":"function","name":"s_lenderCollateral","inputs":[{"name":"","type":"address","internalType":"address"}],"outputs":[{"name":"","type":"uint256","internalType":"uint256"}],"stateMutability":"view"},{"type":"function","name":"s_lenderCrowfundedLoanId","inputs":[{"name":"","type":"address","internalType":"address"}],"outputs":[{"name":"","type":"uint256","internalType":"uint256"}],"stateMutability":"view"},{"type":"function","name":"s_maximumAmountForLoan","inputs":[{"name":"","type":"address","internalType":"address"}],"outputs":[{"name":"","type":"uint256","internalType":"uint256"}],"stateMutability":"view"},{"type":"function","name":"transferOwnership","inputs":[{"name":"newOwner","type":"address","internalType":"address"}],"outputs":[],"stateMutability":"nonpayable"},{"type":"function","name":"withdrawForCrowfundedLoan","inputs":[{"name":"amount","type":"uint256","internalType":"uint256"},{"name":"loanId","type":"uint256","internalType":"uint256"}],"outputs":[],"stateMutability":"nonpayable"},{"type":"event","name":"AssetBorrowed","inputs":[{"name":"user","type":"address","indexed":true,"internalType":"address"},{"name":"amount","type":"uint256","indexed":true,"internalType":"uint256"}],"anonymous":false},{"type":"event","name":"CollateralAdded","inputs":[{"name":"user","type":"address","indexed":true,"internalType":"address"},{"name":"amount","type":"uint256","indexed":true,"internalType":"uint256"},{"name":"crowfundedLoanId","type":"uint256","indexed":true,"internalType":"uint256"}],"anonymous":false},{"type":"event","name":"CollateralWithdrawn","inputs":[{"name":"user","type":"address","indexed":true,"internalType":"address"},{"name":"amount","type":"uint256","indexed":true,"internalType":"uint256"}],"anonymous":false},{"type":"event","name":"DebtRepaid","inputs":[{"name":"user","type":"address","indexed":true,"internalType":"address"},{"name":"amount","type":"uint256","indexed":true,"internalType":"uint256"}],"anonymous":false},{"type":"event","name":"Liquidation","inputs":[{"name":"user","type":"address","indexed":true,"internalType":"address"},{"name":"liquidator","type":"address","indexed":true,"internalType":"address"},{"name":"amountForLiquidator","type":"uint256","indexed":false,"internalType":"uint256"},{"name":"liquidatedUserDebt","type":"uint256","indexed":false,"internalType":"uint256"}],"anonymous":false},{"type":"event","name":"LoanRequestCreated","inputs":[{"name":"loanId","type":"uint256","indexed":true,"internalType":"uint256"},{"name":"borrower","type":"address","indexed":true,"internalType":"address"}],"anonymous":false},{"type":"event","name":"MaximumAmountForLoanIncreased","inputs":[{"name":"user","type":"address","indexed":true,"internalType":"address"},{"name":"newAmount","type":"uint256","indexed":true,"internalType":"uint256"}],"anonymous":false},{"type":"event","name":"OwnershipTransferred","inputs":[{"name":"previousOwner","type":"address","indexed":true,"internalType":"address"},{"name":"newOwner","type":"address","indexed":true,"internalType":"address"}],"anonymous":false},{"type":"error","name":"LoanadLendingMarket__BorrowingFailed","inputs":[]},{"type":"error","name":"LoanadLendingMarket__CrowfundedLoanDoesNotExist","inputs":[]},{"type":"error","name":"LoanadLendingMarket__InvalidAmount","inputs":[]},{"type":"error","name":"LoanadLendingMarket__TransferFailed","inputs":[]},{"type":"error","name":"LoanadLendingMarket__UnsafePositionRatio","inputs":[]},{"type":"error","name":"OwnableInvalidOwner","inputs":[{"name":"owner","type":"address","internalType":"address"}]},{"type":"error","name":"OwnableUnauthorizedAccount","inputs":[{"name":"account","type":"address","internalType":"address"}]}],"bytecode":{"object":"0x60806040526001600755335f73ffffffffffffffffffffffffffffffffffffffff168173ffffffffffffffffffffffffffffffffffffffff160361007a575f6040517f1e4fbdf7000000000000000000000000000000000000000000000000000000008152600401610071919061018f565b60405180910390fd5b6100898161008f60201b60201c565b506101a8565b5f5f5f9054906101000a900473ffffffffffffffffffffffffffffffffffffffff169050815f5f6101000a81548173ffffffffffffffffffffffffffffffffffffffff021916908373ffffffffffffffffffffffffffffffffffffffff1602179055508173ffffffffffffffffffffffffffffffffffffffff168173ffffffffffffffffffffffffffffffffffffffff167f8be0079c531659141344cd1fd0a4f28419497f9722a3daafe3b4186f6b6457e060405160405180910390a35050565b5f73ffffffffffffffffffffffffffffffffffffffff82169050919050565b5f61017982610150565b9050919050565b6101898161016f565b82525050565b5f6020820190506101a25f830184610180565b92915050565b6119fc806101b55f395ff3fe60806040526004361061011e575f3560e01c80636a10592b1161009f5780638da5cb5b116100635780638da5cb5b146103fa578063e1c8b0cb14610424578063e3fede901461044c578063eca0617014610488578063f2fde38b146104c45761011e565b80636a10592b146102f45780636b9e1d9314610330578063706f24a51461036c578063715018a6146103a85780637a4d08f1146103be5761011e565b8063391f64ad116100e6578063391f64ad1461021a5780633d263c33146102565780633ef0a2f714610260578063523992ab1461029c5780635886cb68146102d85761011e565b8063010d573014610122578063042e02cf1461015e5780630835e1451461019a5780631e7b5766146101d65780632645b1db146101fe575b5f5ffd5b34801561012d575f5ffd5b506101486004803603810190610143919061165e565b6104ec565b6040516101559190611698565b60405180910390f35b348015610169575f5ffd5b50610184600480360381019061017f919061170b565b610506565b6040516101919190611750565b60405180910390f35b3480156101a5575f5ffd5b506101c060048036038101906101bb919061170b565b6105ac565b6040516101cd9190611698565b60405180910390f35b3480156101e1575f5ffd5b506101fc60048036038101906101f79190611769565b61063f565b005b6102186004803603810190610213919061165e565b6108e4565b005b348015610225575f5ffd5b50610240600480360381019061023b919061170b565b610b8d565b60405161024d9190611698565b60405180910390f35b61025e610ba2565b005b34801561026b575f5ffd5b506102866004803603810190610281919061165e565b610cc6565b60405161029391906117b6565b60405180910390f35b3480156102a7575f5ffd5b506102c260048036038101906102bd919061165e565b610cff565b6040516102cf9190611698565b60405180910390f35b6102f260048036038101906102ed919061165e565b610d14565b005b3480156102ff575f5ffd5b5061031a6004803603810190610315919061170b565b610ee6565b6040516103279190611698565b60405180910390f35b34801561033b575f5ffd5b506103566004803603810190610351919061170b565b610efb565b6040516103639190611698565b60405180910390f35b348015610377575f5ffd5b50610392600480360381019061038d919061165e565b610f10565b60405161039f9190611698565b60405180910390f35b3480156103b3575f5ffd5b506103bc611041565b005b3480156103c9575f5ffd5b506103e460048036038101906103df919061165e565b611054565b6040516103f191906117b6565b60405180910390f35b348015610405575f5ffd5b5061040e611084565b60405161041b91906117b6565b60405180910390f35b34801561042f575f5ffd5b5061044a600480360381019061044591906117cf565b6110ab565b005b348015610457575f5ffd5b50610472600480360381019061046d919061170b565b6111a6565b60405161047f9190611698565b60405180910390f35b348015610493575f5ffd5b506104ae60048036038101906104a9919061170b565b6111ec565b6040516104bb9190611698565b60405180910390f35b3480156104cf575f5ffd5b506104ea60048036038101906104e5919061170b565b611201565b005b5f60025f8381526020019081526020015f20549050919050565b5f5f61054e60065f8573ffffffffffffffffffffffffffffffffffffffff1673ffffffffffffffffffffffffffffffffffffffff1681526020019081526020015f2054611285565b90507fffffffffffffffffffffffffffffffffffffffffffffffffffffffffffffffff8103610580575f9150506105a7565b670de0b6b3a76400006078610595919061183a565b6064826105a2919061183a565b109150505b919050565b5f5f60055f8473ffffffffffffffffffffffffffffffffffffffff1673ffffffffffffffffffffffffffffffffffffffff1681526020019081526020015f2054036105f9575f905061063a565b60055f8373ffffffffffffffffffffffffffffffffffffffff1673ffffffffffffffffffffffffffffffffffffffff1681526020019081526020015f205490505b919050565b5f82148061068957508160055f3373ffffffffffffffffffffffffffffffffffffffff1673ffffffffffffffffffffffffffffffffffffffff1681526020019081526020015f2054105b156106c0576040517f03eafacd00000000000000000000000000000000000000000000000000000000815260040160405180910390fd5b5f60065f3373ffffffffffffffffffffffffffffffffffffffff1673ffffffffffffffffffffffffffffffffffffffff1681526020019081526020015f205403610736576040517fdb25899d00000000000000000000000000000000000000000000000000000000815260040160405180910390fd5b8160055f3373ffffffffffffffffffffffffffffffffffffffff1673ffffffffffffffffffffffffffffffffffffffff1681526020019081526020015f205f828254610782919061187b565b925050819055508160025f8381526020019081526020015f205f8282546107a9919061187b565b925050819055506107f660065f3373ffffffffffffffffffffffffffffffffffffffff1673ffffffffffffffffffffffffffffffffffffffff1681526020019081526020015f20546113a5565b5f3373ffffffffffffffffffffffffffffffffffffffff168360405161081b906118db565b5f6040518083038185875af1925050503d805f8114610855576040519150601f19603f3d011682016040523d82523d5f602084013e61085a565b606091505b5050905080156108ad57823373ffffffffffffffffffffffffffffffffffffffff167fc30fcfbcaac9e0deffa719714eaa82396ff506a0d0d0eebe170830177288715d60405160405180910390a36108df565b6040517f8607135600000000000000000000000000000000000000000000000000000000815260040160405180910390fd5b505050565b5f810361091d576040517f03eafacd00000000000000000000000000000000000000000000000000000000815260040160405180910390fd5b60035f3373ffffffffffffffffffffffffffffffffffffffff1673ffffffffffffffffffffffffffffffffffffffff1681526020019081526020015f2054811115610994576040517f03eafacd00000000000000000000000000000000000000000000000000000000815260040160405180910390fd5b60035f3373ffffffffffffffffffffffffffffffffffffffff1673ffffffffffffffffffffffffffffffffffffffff1681526020019081526020015f20548160045f3373ffffffffffffffffffffffffffffffffffffffff1673ffffffffffffffffffffffffffffffffffffffff1681526020019081526020015f2054610a1b91906118ef565b1115610a53576040517f03eafacd00000000000000000000000000000000000000000000000000000000815260040160405180910390fd5b8060045f3373ffffffffffffffffffffffffffffffffffffffff1673ffffffffffffffffffffffffffffffffffffffff1681526020019081526020015f205f828254610a9f91906118ef565b925050819055505f3373ffffffffffffffffffffffffffffffffffffffff1682604051610acb906118db565b5f6040518083038185875af1925050503d805f8114610b05576040519150601f19603f3d011682016040523d82523d5f602084013e610b0a565b606091505b5050905080610b45576040517f0c4474ed00000000000000000000000000000000000000000000000000000000815260040160405180910390fd5b813373ffffffffffffffffffffffffffffffffffffffff167f03c44a7ddb65ca5f1bbeffda35ba96457c370e957138d14005ff3e55551ab50f60405160405180910390a35050565b6005602052805f5260405f205f915090505481565b5f341480610bec575060045f3373ffffffffffffffffffffffffffffffffffffffff1673ffffffffffffffffffffffffffffffffffffffff1681526020019081526020015f205434115b15610c23576040517f03eafacd00000000000000000000000000000000000000000000000000000000815260040160405180910390fd5b3460045f3373ffffffffffffffffffffffffffffffffffffffff1673ffffffffffffffffffffffffffffffffffffffff1681526020019081526020015f205f828254610c6f919061187b565b92505081905550343373ffffffffffffffffffffffffffffffffffffffff167fe8b606ac1e5df7657db58d297ca8f41c090fc94c5fd2d6958f043e41736e9fa660405160405180910390a3610cc333611418565b50565b5f60015f8381526020019081526020015f205f9054906101000a900473ffffffffffffffffffffffffffffffffffffffff169050919050565b6002602052805f5260405f205f915090505481565b5f3403610d4d576040517f03eafacd00000000000000000000000000000000000000000000000000000000815260040160405180910390fd5b5f73ffffffffffffffffffffffffffffffffffffffff1660015f8381526020019081526020015f205f9054906101000a900473ffffffffffffffffffffffffffffffffffffffff1673ffffffffffffffffffffffffffffffffffffffff1603610de2576040517fdb25899d00000000000000000000000000000000000000000000000000000000815260040160405180910390fd5b3460055f3373ffffffffffffffffffffffffffffffffffffffff1673ffffffffffffffffffffffffffffffffffffffff1681526020019081526020015f205f828254610e2e91906118ef565b925050819055508060065f3373ffffffffffffffffffffffffffffffffffffffff1673ffffffffffffffffffffffffffffffffffffffff1681526020019081526020015f20819055503460025f8381526020019081526020015f205f828254610e9791906118ef565b9250508190555080343373ffffffffffffffffffffffffffffffffffffffff167f11f8990ac38271f23dea447d5728e9914fca7cea2edda43af6c43c415f8bc30b60405160405180910390a450565b6006602052805f5260405f205f915090505481565b6004602052805f5260405f205f915090505481565b5f60035f3373ffffffffffffffffffffffffffffffffffffffff1673ffffffffffffffffffffffffffffffffffffffff1681526020019081526020015f2054821115610f88576040517f03eafacd00000000000000000000000000000000000000000000000000000000815260040160405180910390fd5b5f60075490503360015f8381526020019081526020015f205f6101000a81548173ffffffffffffffffffffffffffffffffffffffff021916908373ffffffffffffffffffffffffffffffffffffffff16021790555060075f815480929190610fef90611922565b91905055503373ffffffffffffffffffffffffffffffffffffffff16817f57df7116e5a123b00bcc6b104cc9b83a18cebf5a4bbc76f884f19c1a5ae2a42660405160405180910390a380915050919050565b6110496114d8565b6110525f61155f565b565b6001602052805f5260405f205f915054906101000a900473ffffffffffffffffffffffffffffffffffffffff1681565b5f5f5f9054906101000a900473ffffffffffffffffffffffffffffffffffffffff16905090565b6110b36114d8565b5f67016345785d8a000090508160035f8573ffffffffffffffffffffffffffffffffffffffff1673ffffffffffffffffffffffffffffffffffffffff1681526020019081526020015f20819055505f8373ffffffffffffffffffffffffffffffffffffffff1682604051611126906118db565b5f6040518083038185875af1925050503d805f8114611160576040519150601f19603f3d011682016040523d82523d5f602084013e611165565b606091505b50509050806111a0576040517f8607135600000000000000000000000000000000000000000000000000000000815260040160405180910390fd5b50505050565b5f60035f8373ffffffffffffffffffffffffffffffffffffffff1673ffffffffffffffffffffffffffffffffffffffff1681526020019081526020015f20549050919050565b6003602052805f5260405f205f915090505481565b6112096114d8565b5f73ffffffffffffffffffffffffffffffffffffffff168173ffffffffffffffffffffffffffffffffffffffff1603611279575f6040517f1e4fbdf700000000000000000000000000000000000000000000000000000000815260040161127091906117b6565b60405180910390fd5b6112828161155f565b50565b5f5f60015f8481526020019081526020015f205f9054906101000a900473ffffffffffffffffffffffffffffffffffffffff1690505f60045f8373ffffffffffffffffffffffffffffffffffffffff1673ffffffffffffffffffffffffffffffffffffffff1681526020019081526020015f205490505f84148061133457505f73ffffffffffffffffffffffffffffffffffffffff168273ffffffffffffffffffffffffffffffffffffffff16145b8061133e57505f81145b1561136d577fffffffffffffffffffffffffffffffffffffffffffffffffffffffffffffffff925050506113a0565b5f60025f8681526020019081526020015f2054905081606482611390919061183a565b61139a9190611996565b93505050505b919050565b6113de60015f8381526020019081526020015f205f9054906101000a900473ffffffffffffffffffffffffffffffffffffffff16610506565b15611415576040517f3d61fa1900000000000000000000000000000000000000000000000000000000815260040160405180910390fd5b50565b5f5f60646014606461142a91906118ef565b611433856111a6565b61143d919061183a565b6114479190611996565b90508060035f8573ffffffffffffffffffffffffffffffffffffffff1673ffffffffffffffffffffffffffffffffffffffff1681526020019081526020015f2081905550808373ffffffffffffffffffffffffffffffffffffffff167f1a4235af372eea817f49df61d0089a8ab9c183dc4aada4a4a63a9e3211dd5b0160405160405180910390a380915050919050565b6114e0611620565b73ffffffffffffffffffffffffffffffffffffffff166114fe611084565b73ffffffffffffffffffffffffffffffffffffffff161461155d57611521611620565b6040517f118cdaa700000000000000000000000000000000000000000000000000000000815260040161155491906117b6565b60405180910390fd5b565b5f5f5f9054906101000a900473ffffffffffffffffffffffffffffffffffffffff169050815f5f6101000a81548173ffffffffffffffffffffffffffffffffffffffff021916908373ffffffffffffffffffffffffffffffffffffffff1602179055508173ffffffffffffffffffffffffffffffffffffffff168173ffffffffffffffffffffffffffffffffffffffff167f8be0079c531659141344cd1fd0a4f28419497f9722a3daafe3b4186f6b6457e060405160405180910390a35050565b5f33905090565b5f5ffd5b5f819050919050565b61163d8161162b565b8114611647575f5ffd5b50565b5f8135905061165881611634565b92915050565b5f6020828403121561167357611672611627565b5b5f6116808482850161164a565b91505092915050565b6116928161162b565b82525050565b5f6020820190506116ab5f830184611689565b92915050565b5f73ffffffffffffffffffffffffffffffffffffffff82169050919050565b5f6116da826116b1565b9050919050565b6116ea816116d0565b81146116f4575f5ffd5b50565b5f81359050611705816116e1565b92915050565b5f602082840312156117205761171f611627565b5b5f61172d848285016116f7565b91505092915050565b5f8115159050919050565b61174a81611736565b82525050565b5f6020820190506117635f830184611741565b92915050565b5f5f6040838503121561177f5761177e611627565b5b5f61178c8582860161164a565b925050602061179d8582860161164a565b9150509250929050565b6117b0816116d0565b82525050565b5f6020820190506117c95f8301846117a7565b92915050565b5f5f604083850312156117e5576117e4611627565b5b5f6117f2858286016116f7565b92505060206118038582860161164a565b9150509250929050565b7f4e487b71000000000000000000000000000000000000000000000000000000005f52601160045260245ffd5b5f6118448261162b565b915061184f8361162b565b925082820261185d8161162b565b915082820484148315176118745761187361180d565b5b5092915050565b5f6118858261162b565b91506118908361162b565b92508282039050818111156118a8576118a761180d565b5b92915050565b5f81905092915050565b50565b5f6118c65f836118ae565b91506118d1826118b8565b5f82019050919050565b5f6118e5826118bb565b9150819050919050565b5f6118f98261162b565b91506119048361162b565b925082820190508082111561191c5761191b61180d565b5b92915050565b5f61192c8261162b565b91507fffffffffffffffffffffffffffffffffffffffffffffffffffffffffffffffff820361195e5761195d61180d565b5b600182019050919050565b7f4e487b71000000000000000000000000000000000000000000000000000000005f52601260045260245ffd5b5f6119a08261162b565b91506119ab8361162b565b9250826119bb576119ba611969565b5b82820490509291505056fea2646970667358221220beb5190e9db5894aaaf56303879539aa2423b969290af9b36b368dd2b81fbbd264736f6c634300081e0033","linkReferences":{}},"methodIdentifiers":{"addCollateralForCrowfundedLoan(uint256)":"5886cb68","assignMaximumAmountForLoan(address,uint256)":"e1c8b0cb","borrowMON(uint256)":"2645b1db","calculateCollateralValue(address)":"0835e145","createLoanRequest(uint256)":"706f24a5","getLoanBorrower(uint256)":"3ef0a2f7","getLoanCollateral(uint256)":"010d5730","getMaximumAmountForLoan(address)":"e3fede90","isLiquidatable(address)":"042e02cf","owner()":"8da5cb5b","renounceOwnership()":"715018a6","repayMON()":"3d263c33","s_collateralForLoanId(uint256)":"523992ab","s_crowfundedLoanId(uint256)":"7a4d08f1","s_debtorBorrowed(address)":"6b9e1d93","s_lenderCollateral(address)":"391f64ad","s_lenderCrowfundedLoanId(address)":"6a10592b","s_maximumAmountForLoan(address)":"eca06170","transferOwnership(address)":"f2fde38b","withdrawForCrowfundedLoan(uint256,uint256)":"1e7b5766"},"id":0}