{"abi":[{"type":"constructor","inputs":[],"stateMutability":"payable"},{"type":"function","name":"addCollateralForCrowfundedLoan","inputs":[{"name":"crowfundedLoanId","type":"uint256","internalType":"uint256"}],"outputs":[],"stateMutability":"payable"},{"type":"function","name":"assignMaximumAmountForLoan","inputs":[{"name":"user","type":"address","internalType":"address"},{"name":"amountForLoan","type":"uint256","internalType":"uint256"}],"outputs":[],"stateMutability":"nonpayable"},{"type":"function","name":"borrowMON","inputs":[{"name":"borrowAmount","type":"uint256","internalType":"uint256"}],"outputs":[],"stateMutability":"payable"},{"type":"function","name":"calculateCollateralValue","inputs":[{"name":"lender","type":"address","internalType":"address"}],"outputs":[{"name":"","type":"uint256","internalType":"uint256"}],"stateMutability":"view"},{"type":"function","name":"createLoanRequest","inputs":[{"name":"amountToBorrow","type":"uint256","internalType":"uint256"}],"outputs":[{"name":"","type":"uint256","internalType":"uint256"}],"stateMutability":"nonpayable"},{"type":"function","name":"getLoanBorrower","inputs":[{"name":"loanId","type":"uint256","internalType":"uint256"}],"outputs":[{"name":"","type":"address","internalType":"address"}],"stateMutability":"view"},{"type":"function","name":"getLoanCollateral","inputs":[{"name":"loanId","type":"uint256","internalType":"uint256"}],"outputs":[{"name":"","type":"uint256","internalType":"uint256"}],"stateMutability":"view"},{"type":"function","name":"getMaximumAmountForLoan","inputs":[{"name":"user","type":"address","internalType":"address"}],"outputs":[{"name":"","type":"uint256","internalType":"uint256"}],"stateMutability":"view"},{"type":"function","name":"getVerifiedUser","inputs":[{"name":"user","type":"address","internalType":"address"}],"outputs":[{"name":"","type":"bool","internalType":"bool"}],"stateMutability":"view"},{"type":"function","name":"isLiquidatable","inputs":[{"name":"user","type":"address","internalType":"address"}],"outputs":[{"name":"","type":"bool","internalType":"bool"}],"stateMutability":"view"},{"type":"function","name":"owner","inputs":[],"outputs":[{"name":"","type":"address","internalType":"address"}],"stateMutability":"view"},{"type":"function","name":"renounceOwnership","inputs":[],"outputs":[],"stateMutability":"nonpayable"},{"type":"function","name":"repayMON","inputs":[],"outputs":[],"stateMutability":"payable"},{"type":"function","name":"s_collateralForLoanId","inputs":[{"name":"","type":"uint256","internalType":"uint256"}],"outputs":[{"name":"","type":"uint256","internalType":"uint256"}],"stateMutability":"view"},{"type":"function","name":"s_crowfundedLoanId","inputs":[{"name":"","type":"uint256","internalType":"uint256"}],"outputs":[{"name":"","type":"address","internalType":"address"}],"stateMutability":"view"},{"type":"function","name":"s_debtorBorrowed","inputs":[{"name":"","type":"address","internalType":"address"}],"outputs":[{"name":"","type":"uint256","internalType":"uint256"}],"stateMutability":"view"},{"type":"function","name":"s_lenderCollateral","inputs":[{"name":"","type":"address","internalType":"address"}],"outputs":[{"name":"","type":"uint256","internalType":"uint256"}],"stateMutability":"view"},{"type":"function","name":"s_lenderCrowfundedLoanId","inputs":[{"name":"","type":"address","internalType":"address"}],"outputs":[{"name":"","type":"uint256","internalType":"uint256"}],"stateMutability":"view"},{"type":"function","name":"s_maximumAmountForLoan","inputs":[{"name":"","type":"address","internalType":"address"}],"outputs":[{"name":"","type":"uint256","internalType":"uint256"}],"stateMutability":"view"},{"type":"function","name":"s_verifiedUsers","inputs":[{"name":"","type":"address","internalType":"address"}],"outputs":[{"name":"","type":"bool","internalType":"bool"}],"stateMutability":"view"},{"type":"function","name":"transferOwnership","inputs":[{"name":"newOwner","type":"address","internalType":"address"}],"outputs":[],"stateMutability":"nonpayable"},{"type":"function","name":"verifyUser","inputs":[{"name":"user","type":"address","internalType":"address"}],"outputs":[],"stateMutability":"nonpayable"},{"type":"function","name":"withdrawForCrowfundedLoan","inputs":[{"name":"amount","type":"uint256","internalType":"uint256"},{"name":"loanId","type":"uint256","internalType":"uint256"}],"outputs":[],"stateMutability":"nonpayable"},{"type":"event","name":"AssetBorrowed","inputs":[{"name":"user","type":"address","indexed":true,"internalType":"address"},{"name":"amount","type":"uint256","indexed":true,"internalType":"uint256"}],"anonymous":false},{"type":"event","name":"CollateralAdded","inputs":[{"name":"user","type":"address","indexed":true,"internalType":"address"},{"name":"amount","type":"uint256","indexed":true,"internalType":"uint256"},{"name":"crowfundedLoanId","type":"uint256","indexed":true,"internalType":"uint256"}],"anonymous":false},{"type":"event","name":"CollateralWithdrawn","inputs":[{"name":"user","type":"address","indexed":true,"internalType":"address"},{"name":"amount","type":"uint256","indexed":true,"internalType":"uint256"}],"anonymous":false},{"type":"event","name":"DebtRepaid","inputs":[{"name":"user","type":"address","indexed":true,"internalType":"address"},{"name":"amount","type":"uint256","indexed":true,"internalType":"uint256"}],"anonymous":false},{"type":"event","name":"Liquidation","inputs":[{"name":"user","type":"address","indexed":true,"internalType":"address"},{"name":"liquidator","type":"address","indexed":true,"internalType":"address"},{"name":"amountForLiquidator","type":"uint256","indexed":false,"internalType":"uint256"},{"name":"liquidatedUserDebt","type":"uint256","indexed":false,"internalType":"uint256"}],"anonymous":false},{"type":"event","name":"LoanRequestCreated","inputs":[{"name":"loanId","type":"uint256","indexed":true,"internalType":"uint256"},{"name":"borrower","type":"address","indexed":true,"internalType":"address"}],"anonymous":false},{"type":"event","name":"MaximumAmountForLoanIncreased","inputs":[{"name":"user","type":"address","indexed":true,"internalType":"address"},{"name":"newAmount","type":"uint256","indexed":true,"internalType":"uint256"}],"anonymous":false},{"type":"event","name":"OwnershipTransferred","inputs":[{"name":"previousOwner","type":"address","indexed":true,"internalType":"address"},{"name":"newOwner","type":"address","indexed":true,"internalType":"address"}],"anonymous":false},{"type":"error","name":"LoanadLendingMarket__BorrowingFailed","inputs":[]},{"type":"error","name":"LoanadLendingMarket__CrowfundedLoanDoesNotExist","inputs":[]},{"type":"error","name":"LoanadLendingMarket__InvalidAmount","inputs":[]},{"type":"error","name":"LoanadLendingMarket__TransferFailed","inputs":[]},{"type":"error","name":"LoanadLendingMarket__UnsafePositionRatio","inputs":[]},{"type":"error","name":"OwnableInvalidOwner","inputs":[{"name":"owner","type":"address","internalType":"address"}]},{"type":"error","name":"OwnableUnauthorizedAccount","inputs":[{"name":"account","type":"address","internalType":"address"}]}],"bytecode":{"object":"0x60806040526001600855335f73ffffffffffffffffffffffffffffffffffffffff168173ffffffffffffffffffffffffffffffffffffffff160361007a575f6040517f1e4fbdf7000000000000000000000000000000000000000000000000000000008152600401610071919061018f565b60405180910390fd5b6100898161008f60201b60201c565b506101a8565b5f5f5f9054906101000a900473ffffffffffffffffffffffffffffffffffffffff169050815f5f6101000a81548173ffffffffffffffffffffffffffffffffffffffff021916908373ffffffffffffffffffffffffffffffffffffffff1602179055508173ffffffffffffffffffffffffffffffffffffffff168173ffffffffffffffffffffffffffffffffffffffff167f8be0079c531659141344cd1fd0a4f28419497f9722a3daafe3b4186f6b6457e060405160405180910390a35050565b5f73ffffffffffffffffffffffffffffffffffffffff82169050919050565b5f61017982610150565b9050919050565b6101898161016f565b82525050565b5f6020820190506101a25f830184610180565b92915050565b611b8c806101b55f395ff3fe60806040526004361061013f575f3560e01c80635886cb68116100b55780638da5cb5b1161006e5780638da5cb5b1461047f578063d117fc99146104a9578063e1c8b0cb146104e5578063e3fede901461050d578063eca0617014610549578063f2fde38b146105855761013f565b80635886cb681461035d5780636a10592b146103795780636b9e1d93146103b5578063706f24a5146103f1578063715018a61461042d5780637a4d08f1146104435761013f565b8063391f64ad11610107578063391f64ad1461023b5780633d263c33146102775780633ef0a2f71461028157806345601056146102bd5780634d813120146102f9578063523992ab146103215761013f565b8063010d573014610143578063042e02cf1461017f5780630835e145146101bb5780631e7b5766146101f75780632645b1db1461021f575b5f5ffd5b34801561014e575f5ffd5b50610169600480360381019061016491906117ee565b6105ad565b6040516101769190611828565b60405180910390f35b34801561018a575f5ffd5b506101a560048036038101906101a0919061189b565b6105c7565b6040516101b291906118e0565b60405180910390f35b3480156101c6575f5ffd5b506101e160048036038101906101dc919061189b565b61066d565b6040516101ee9190611828565b60405180910390f35b348015610202575f5ffd5b5061021d600480360381019061021891906118f9565b610700565b005b610239600480360381019061023491906117ee565b6109a5565b005b348015610246575f5ffd5b50610261600480360381019061025c919061189b565b610c4e565b60405161026e9190611828565b60405180910390f35b61027f610c63565b005b34801561028c575f5ffd5b506102a760048036038101906102a291906117ee565b610d87565b6040516102b49190611946565b60405180910390f35b3480156102c8575f5ffd5b506102e360048036038101906102de919061189b565b610dc0565b6040516102f091906118e0565b60405180910390f35b348015610304575f5ffd5b5061031f600480360381019061031a919061189b565b610ddd565b005b34801561032c575f5ffd5b50610347600480360381019061034291906117ee565b610e3d565b6040516103549190611828565b60405180910390f35b610377600480360381019061037291906117ee565b610e52565b005b348015610384575f5ffd5b5061039f600480360381019061039a919061189b565b611024565b6040516103ac9190611828565b60405180910390f35b3480156103c0575f5ffd5b506103db60048036038101906103d6919061189b565b611039565b6040516103e89190611828565b60405180910390f35b3480156103fc575f5ffd5b50610417600480360381019061041291906117ee565b61104e565b6040516104249190611828565b60405180910390f35b348015610438575f5ffd5b5061044161117f565b005b34801561044e575f5ffd5b50610469600480360381019061046491906117ee565b611192565b6040516104769190611946565b60405180910390f35b34801561048a575f5ffd5b506104936111c2565b6040516104a09190611946565b60405180910390f35b3480156104b4575f5ffd5b506104cf60048036038101906104ca919061189b565b6111e9565b6040516104dc91906118e0565b60405180910390f35b3480156104f0575f5ffd5b5061050b6004803603810190610506919061195f565b61123b565b005b348015610518575f5ffd5b50610533600480360381019061052e919061189b565b611336565b6040516105409190611828565b60405180910390f35b348015610554575f5ffd5b5061056f600480360381019061056a919061189b565b61137c565b60405161057c9190611828565b60405180910390f35b348015610590575f5ffd5b506105ab60048036038101906105a6919061189b565b611391565b005b5f60025f8381526020019081526020015f20549050919050565b5f5f61060f60075f8573ffffffffffffffffffffffffffffffffffffffff1673ffffffffffffffffffffffffffffffffffffffff1681526020019081526020015f2054611415565b90507fffffffffffffffffffffffffffffffffffffffffffffffffffffffffffffffff8103610641575f915050610668565b670de0b6b3a7640000607861065691906119ca565b60648261066391906119ca565b109150505b919050565b5f5f60065f8473ffffffffffffffffffffffffffffffffffffffff1673ffffffffffffffffffffffffffffffffffffffff1681526020019081526020015f2054036106ba575f90506106fb565b60065f8373ffffffffffffffffffffffffffffffffffffffff1673ffffffffffffffffffffffffffffffffffffffff1681526020019081526020015f205490505b919050565b5f82148061074a57508160065f3373ffffffffffffffffffffffffffffffffffffffff1673ffffffffffffffffffffffffffffffffffffffff1681526020019081526020015f2054105b15610781576040517f03eafacd00000000000000000000000000000000000000000000000000000000815260040160405180910390fd5b5f60075f3373ffffffffffffffffffffffffffffffffffffffff1673ffffffffffffffffffffffffffffffffffffffff1681526020019081526020015f2054036107f7576040517fdb25899d00000000000000000000000000000000000000000000000000000000815260040160405180910390fd5b8160065f3373ffffffffffffffffffffffffffffffffffffffff1673ffffffffffffffffffffffffffffffffffffffff1681526020019081526020015f205f8282546108439190611a0b565b925050819055508160025f8381526020019081526020015f205f82825461086a9190611a0b565b925050819055506108b760075f3373ffffffffffffffffffffffffffffffffffffffff1673ffffffffffffffffffffffffffffffffffffffff1681526020019081526020015f2054611535565b5f3373ffffffffffffffffffffffffffffffffffffffff16836040516108dc90611a6b565b5f6040518083038185875af1925050503d805f8114610916576040519150601f19603f3d011682016040523d82523d5f602084013e61091b565b606091505b50509050801561096e57823373ffffffffffffffffffffffffffffffffffffffff167fc30fcfbcaac9e0deffa719714eaa82396ff506a0d0d0eebe170830177288715d60405160405180910390a36109a0565b6040517f8607135600000000000000000000000000000000000000000000000000000000815260040160405180910390fd5b505050565b5f81036109de576040517f03eafacd00000000000000000000000000000000000000000000000000000000815260040160405180910390fd5b60035f3373ffffffffffffffffffffffffffffffffffffffff1673ffffffffffffffffffffffffffffffffffffffff1681526020019081526020015f2054811115610a55576040517f03eafacd00000000000000000000000000000000000000000000000000000000815260040160405180910390fd5b60035f3373ffffffffffffffffffffffffffffffffffffffff1673ffffffffffffffffffffffffffffffffffffffff1681526020019081526020015f20548160045f3373ffffffffffffffffffffffffffffffffffffffff1673ffffffffffffffffffffffffffffffffffffffff1681526020019081526020015f2054610adc9190611a7f565b1115610b14576040517f03eafacd00000000000000000000000000000000000000000000000000000000815260040160405180910390fd5b8060045f3373ffffffffffffffffffffffffffffffffffffffff1673ffffffffffffffffffffffffffffffffffffffff1681526020019081526020015f205f828254610b609190611a7f565b925050819055505f3373ffffffffffffffffffffffffffffffffffffffff1682604051610b8c90611a6b565b5f6040518083038185875af1925050503d805f8114610bc6576040519150601f19603f3d011682016040523d82523d5f602084013e610bcb565b606091505b5050905080610c06576040517f0c4474ed00000000000000000000000000000000000000000000000000000000815260040160405180910390fd5b813373ffffffffffffffffffffffffffffffffffffffff167f03c44a7ddb65ca5f1bbeffda35ba96457c370e957138d14005ff3e55551ab50f60405160405180910390a35050565b6006602052805f5260405f205f915090505481565b5f341480610cad575060045f3373ffffffffffffffffffffffffffffffffffffffff1673ffffffffffffffffffffffffffffffffffffffff1681526020019081526020015f205434115b15610ce4576040517f03eafacd00000000000000000000000000000000000000000000000000000000815260040160405180910390fd5b3460045f3373ffffffffffffffffffffffffffffffffffffffff1673ffffffffffffffffffffffffffffffffffffffff1681526020019081526020015f205f828254610d309190611a0b565b92505081905550343373ffffffffffffffffffffffffffffffffffffffff167fe8b606ac1e5df7657db58d297ca8f41c090fc94c5fd2d6958f043e41736e9fa660405160405180910390a3610d84336115a8565b50565b5f60015f8381526020019081526020015f205f9054906101000a900473ffffffffffffffffffffffffffffffffffffffff169050919050565b6005602052805f5260405f205f915054906101000a900460ff1681565b610de5611668565b600160055f8373ffffffffffffffffffffffffffffffffffffffff1673ffffffffffffffffffffffffffffffffffffffff1681526020019081526020015f205f6101000a81548160ff02191690831515021790555050565b6002602052805f5260405f205f915090505481565b5f3403610e8b576040517f03eafacd00000000000000000000000000000000000000000000000000000000815260040160405180910390fd5b5f73ffffffffffffffffffffffffffffffffffffffff1660015f8381526020019081526020015f205f9054906101000a900473ffffffffffffffffffffffffffffffffffffffff1673ffffffffffffffffffffffffffffffffffffffff1603610f20576040517fdb25899d00000000000000000000000000000000000000000000000000000000815260040160405180910390fd5b3460065f3373ffffffffffffffffffffffffffffffffffffffff1673ffffffffffffffffffffffffffffffffffffffff1681526020019081526020015f205f828254610f6c9190611a7f565b925050819055508060075f3373ffffffffffffffffffffffffffffffffffffffff1673ffffffffffffffffffffffffffffffffffffffff1681526020019081526020015f20819055503460025f8381526020019081526020015f205f828254610fd59190611a7f565b9250508190555080343373ffffffffffffffffffffffffffffffffffffffff167f11f8990ac38271f23dea447d5728e9914fca7cea2edda43af6c43c415f8bc30b60405160405180910390a450565b6007602052805f5260405f205f915090505481565b6004602052805f5260405f205f915090505481565b5f60035f3373ffffffffffffffffffffffffffffffffffffffff1673ffffffffffffffffffffffffffffffffffffffff1681526020019081526020015f20548211156110c6576040517f03eafacd00000000000000000000000000000000000000000000000000000000815260040160405180910390fd5b5f60085490503360015f8381526020019081526020015f205f6101000a81548173ffffffffffffffffffffffffffffffffffffffff021916908373ffffffffffffffffffffffffffffffffffffffff16021790555060085f81548092919061112d90611ab2565b91905055503373ffffffffffffffffffffffffffffffffffffffff16817f57df7116e5a123b00bcc6b104cc9b83a18cebf5a4bbc76f884f19c1a5ae2a42660405160405180910390a380915050919050565b611187611668565b6111905f6116ef565b565b6001602052805f5260405f205f915054906101000a900473ffffffffffffffffffffffffffffffffffffffff1681565b5f5f5f9054906101000a900473ffffffffffffffffffffffffffffffffffffffff16905090565b5f60055f8373ffffffffffffffffffffffffffffffffffffffff1673ffffffffffffffffffffffffffffffffffffffff1681526020019081526020015f205f9054906101000a900460ff169050919050565b611243611668565b5f67016345785d8a000090508160035f8573ffffffffffffffffffffffffffffffffffffffff1673ffffffffffffffffffffffffffffffffffffffff1681526020019081526020015f20819055505f8373ffffffffffffffffffffffffffffffffffffffff16826040516112b690611a6b565b5f6040518083038185875af1925050503d805f81146112f0576040519150601f19603f3d011682016040523d82523d5f602084013e6112f5565b606091505b5050905080611330576040517f8607135600000000000000000000000000000000000000000000000000000000815260040160405180910390fd5b50505050565b5f60035f8373ffffffffffffffffffffffffffffffffffffffff1673ffffffffffffffffffffffffffffffffffffffff1681526020019081526020015f20549050919050565b6003602052805f5260405f205f915090505481565b611399611668565b5f73ffffffffffffffffffffffffffffffffffffffff168173ffffffffffffffffffffffffffffffffffffffff1603611409575f6040517f1e4fbdf70000000000000000000000000000000000000000000000000000000081526004016114009190611946565b60405180910390fd5b611412816116ef565b50565b5f5f60015f8481526020019081526020015f205f9054906101000a900473ffffffffffffffffffffffffffffffffffffffff1690505f60045f8373ffffffffffffffffffffffffffffffffffffffff1673ffffffffffffffffffffffffffffffffffffffff1681526020019081526020015f205490505f8414806114c457505f73ffffffffffffffffffffffffffffffffffffffff168273ffffffffffffffffffffffffffffffffffffffff16145b806114ce57505f81145b156114fd577fffffffffffffffffffffffffffffffffffffffffffffffffffffffffffffffff92505050611530565b5f60025f8681526020019081526020015f205490508160648261152091906119ca565b61152a9190611b26565b93505050505b919050565b61156e60015f8381526020019081526020015f205f9054906101000a900473ffffffffffffffffffffffffffffffffffffffff166105c7565b156115a5576040517f3d61fa1900000000000000000000000000000000000000000000000000000000815260040160405180910390fd5b50565b5f5f6064601460646115ba9190611a7f565b6115c385611336565b6115cd91906119ca565b6115d79190611b26565b90508060035f8573ffffffffffffffffffffffffffffffffffffffff1673ffffffffffffffffffffffffffffffffffffffff1681526020019081526020015f2081905550808373ffffffffffffffffffffffffffffffffffffffff167f1a4235af372eea817f49df61d0089a8ab9c183dc4aada4a4a63a9e3211dd5b0160405160405180910390a380915050919050565b6116706117b0565b73ffffffffffffffffffffffffffffffffffffffff1661168e6111c2565b73ffffffffffffffffffffffffffffffffffffffff16146116ed576116b16117b0565b6040517f118cdaa70000000000000000000000000000000000000000000000000000000081526004016116e49190611946565b60405180910390fd5b565b5f5f5f9054906101000a900473ffffffffffffffffffffffffffffffffffffffff169050815f5f6101000a81548173ffffffffffffffffffffffffffffffffffffffff021916908373ffffffffffffffffffffffffffffffffffffffff1602179055508173ffffffffffffffffffffffffffffffffffffffff168173ffffffffffffffffffffffffffffffffffffffff167f8be0079c531659141344cd1fd0a4f28419497f9722a3daafe3b4186f6b6457e060405160405180910390a35050565b5f33905090565b5f5ffd5b5f819050919050565b6117cd816117bb565b81146117d7575f5ffd5b50565b5f813590506117e8816117c4565b92915050565b5f60208284031215611803576118026117b7565b5b5f611810848285016117da565b91505092915050565b611822816117bb565b82525050565b5f60208201905061183b5f830184611819565b92915050565b5f73ffffffffffffffffffffffffffffffffffffffff82169050919050565b5f61186a82611841565b9050919050565b61187a81611860565b8114611884575f5ffd5b50565b5f8135905061189581611871565b92915050565b5f602082840312156118b0576118af6117b7565b5b5f6118bd84828501611887565b91505092915050565b5f8115159050919050565b6118da816118c6565b82525050565b5f6020820190506118f35f8301846118d1565b92915050565b5f5f6040838503121561190f5761190e6117b7565b5b5f61191c858286016117da565b925050602061192d858286016117da565b9150509250929050565b61194081611860565b82525050565b5f6020820190506119595f830184611937565b92915050565b5f5f60408385031215611975576119746117b7565b5b5f61198285828601611887565b9250506020611993858286016117da565b9150509250929050565b7f4e487b71000000000000000000000000000000000000000000000000000000005f52601160045260245ffd5b5f6119d4826117bb565b91506119df836117bb565b92508282026119ed816117bb565b91508282048414831517611a0457611a0361199d565b5b5092915050565b5f611a15826117bb565b9150611a20836117bb565b9250828203905081811115611a3857611a3761199d565b5b92915050565b5f81905092915050565b50565b5f611a565f83611a3e565b9150611a6182611a48565b5f82019050919050565b5f611a7582611a4b565b9150819050919050565b5f611a89826117bb565b9150611a94836117bb565b9250828201905080821115611aac57611aab61199d565b5b92915050565b5f611abc826117bb565b91507fffffffffffffffffffffffffffffffffffffffffffffffffffffffffffffffff8203611aee57611aed61199d565b5b600182019050919050565b7f4e487b71000000000000000000000000000000000000000000000000000000005f52601260045260245ffd5b5f611b30826117bb565b9150611b3b836117bb565b925082611b4b57611b4a611af9565b5b82820490509291505056fea2646970667358221220f4e347f5f97d6c5cbc12148e30d372d096a0d6b30d4e46137107abf31e8f500664736f6c634300081e0033","linkReferences":{}},"methodIdentifiers":{"addCollateralForCrowfundedLoan(uint256)":"5886cb68","assignMaximumAmountForLoan(address,uint256)":"e1c8b0cb","borrowMON(uint256)":"2645b1db","calculateCollateralValue(address)":"0835e145","createLoanRequest(uint256)":"706f24a5","getLoanBorrower(uint256)":"3ef0a2f7","getLoanCollateral(uint256)":"010d5730","getMaximumAmountForLoan(address)":"e3fede90","getVerifiedUser(address)":"d117fc99","isLiquidatable(address)":"042e02cf","owner()":"8da5cb5b","renounceOwnership()":"715018a6","repayMON()":"3d263c33","s_collateralForLoanId(uint256)":"523992ab","s_crowfundedLoanId(uint256)":"7a4d08f1","s_debtorBorrowed(address)":"6b9e1d93","s_lenderCollateral(address)":"391f64ad","s_lenderCrowfundedLoanId(address)":"6a10592b","s_maximumAmountForLoan(address)":"eca06170","s_verifiedUsers(address)":"45601056","transferOwnership(address)":"f2fde38b","verifyUser(address)":"4d813120","withdrawForCrowfundedLoan(uint256,uint256)":"1e7b5766"},"id":0}